{
  "_format": "hh-sol-artifact-1",
  "contractName": "MyToken",
  "sourceName": "contracts/MyToken.sol",
  "abi": [
    {
      "inputs": [],
      "stateMutability": "nonpayable",
      "type": "constructor"
    },
    {
      "anonymous": false,
      "inputs": [
        {
          "indexed": true,
          "internalType": "address",
          "name": "_from",
          "type": "address"
        },
        {
          "indexed": true,
          "internalType": "address",
          "name": "_to",
          "type": "address"
        },
        {
          "indexed": false,
          "internalType": "uint256",
          "name": "_value",
          "type": "uint256"
        }
      ],
      "name": "Transfer",
      "type": "event"
    },
    {
      "inputs": [
        {
          "internalType": "address",
          "name": "account",
          "type": "address"
        }
      ],
      "name": "balanceOf",
      "outputs": [
        {
          "internalType": "uint256",
          "name": "",
          "type": "uint256"
        }
      ],
      "stateMutability": "view",
      "type": "function"
    },
    {
      "inputs": [],
      "name": "getOwner",
      "outputs": [
        {
          "internalType": "address",
          "name": "",
          "type": "address"
        }
      ],
      "stateMutability": "view",
      "type": "function"
    },
    {
      "inputs": [
        {
          "internalType": "address",
          "name": "account",
          "type": "address"
        }
      ],
      "name": "getTokenFromAddress",
      "outputs": [
        {
          "internalType": "uint256",
          "name": "",
          "type": "uint256"
        }
      ],
      "stateMutability": "view",
      "type": "function"
    },
    {
      "inputs": [],
      "name": "getTotalSupply",
      "outputs": [
        {
          "internalType": "uint256",
          "name": "",
          "type": "uint256"
        }
      ],
      "stateMutability": "view",
      "type": "function"
    },
    {
      "inputs": [],
      "name": "name",
      "outputs": [
        {
          "internalType": "string",
          "name": "",
          "type": "string"
        }
      ],
      "stateMutability": "view",
      "type": "function"
    },
    {
      "inputs": [],
      "name": "owner",
      "outputs": [
        {
          "internalType": "address",
          "name": "",
          "type": "address"
        }
      ],
      "stateMutability": "view",
      "type": "function"
    },
    {
      "inputs": [],
      "name": "symbol",
      "outputs": [
        {
          "internalType": "string",
          "name": "",
          "type": "string"
        }
      ],
      "stateMutability": "view",
      "type": "function"
    },
    {
      "inputs": [],
      "name": "totalSupply",
      "outputs": [
        {
          "internalType": "uint256",
          "name": "",
          "type": "uint256"
        }
      ],
      "stateMutability": "view",
      "type": "function"
    },
    {
      "inputs": [
        {
          "internalType": "address",
          "name": "to",
          "type": "address"
        },
        {
          "internalType": "uint256",
          "name": "amount",
          "type": "uint256"
        }
      ],
      "name": "transfer",
      "outputs": [],
      "stateMutability": "nonpayable",
      "type": "function"
    }
  ],
  "bytecode": "0x60806040526040518060400160405280600781526020017f4d79546f6b656e0000000000000000000000000000000000000000000000000081525060009081610048919061037e565b506040518060400160405280600381526020017f44475400000000000000000000000000000000000000000000000000000000008152506001908161008d919061037e565b50620f42406002553480156100a157600080fd5b50600254600460003373ffffffffffffffffffffffffffffffffffffffff1673ffffffffffffffffffffffffffffffffffffffff1681526020019081526020016000208190555033600360006101000a81548173ffffffffffffffffffffffffffffffffffffffff021916908373ffffffffffffffffffffffffffffffffffffffff160217905550610450565b600081519050919050565b7f4e487b7100000000000000000000000000000000000000000000000000000000600052604160045260246000fd5b7f4e487b7100000000000000000000000000000000000000000000000000000000600052602260045260246000fd5b600060028204905060018216806101af57607f821691505b6020821081036101c2576101c1610168565b5b50919050565b60008190508160005260206000209050919050565b60006020601f8301049050919050565b600082821b905092915050565b60006008830261022a7fffffffffffffffffffffffffffffffffffffffffffffffffffffffffffffffff826101ed565b61023486836101ed565b95508019841693508086168417925050509392505050565b6000819050919050565b6000819050919050565b600061027b6102766102718461024c565b610256565b61024c565b9050919050565b6000819050919050565b61029583610260565b6102a96102a182610282565b8484546101fa565b825550505050565b600090565b6102be6102b1565b6102c981848461028c565b505050565b5b818110156102ed576102e26000826102b6565b6001810190506102cf565b5050565b601f82111561033257610303816101c8565b61030c846101dd565b8101602085101561031b578190505b61032f610327856101dd565b8301826102ce565b50505b505050565b600082821c905092915050565b600061035560001984600802610337565b1980831691505092915050565b600061036e8383610344565b9150826002028217905092915050565b6103878261012e565b67ffffffffffffffff8111156103a05761039f610139565b5b6103aa8254610197565b6103b58282856102f1565b600060209050601f8311600181146103e857600084156103d6578287015190505b6103e08582610362565b865550610448565b601f1984166103f6866101c8565b60005b8281101561041e578489015182556001820191506020850194506020810190506103f9565b8683101561043b5784890151610437601f891682610344565b8355505b6001600288020188555050505b505050505050565b610bd48061045f6000396000f3fe608060405234801561001057600080fd5b50600436106100935760003560e01c80638da5cb5b116100665780638da5cb5b1461012257806395d89b4114610140578063a9059cbb1461015e578063bc53f9361461017a578063c4e41b22146101aa57610093565b806306fdde031461009857806318160ddd146100b657806370a08231146100d4578063893d20e814610104575b600080fd5b6100a06101c8565b6040516100ad91906107f0565b60405180910390f35b6100be610256565b6040516100cb919061082b565b60405180910390f35b6100ee60048036038101906100e991906108a9565b61025c565b6040516100fb919061082b565b60405180910390f35b61010c6102a5565b60405161011991906108e5565b60405180910390f35b61012a6102cf565b60405161013791906108e5565b60405180910390f35b6101486102f5565b60405161015591906107f0565b60405180910390f35b6101786004803603810190610173919061092c565b610383565b005b610194600480360381019061018f91906108a9565b61053e565b6040516101a1919061082b565b60405180910390f35b6101b2610587565b6040516101bf919061082b565b60405180910390f35b600080546101d59061099b565b80601f01602080910402602001604051908101604052809291908181526020018280546102019061099b565b801561024e5780601f106102235761010080835404028352916020019161024e565b820191906000526020600020905b81548152906001019060200180831161023157829003601f168201915b505050505081565b60025481565b6000600460008373ffffffffffffffffffffffffffffffffffffffff1673ffffffffffffffffffffffffffffffffffffffff168152602001908152602001600020549050919050565b6000600360009054906101000a900473ffffffffffffffffffffffffffffffffffffffff16905090565b600360009054906101000a900473ffffffffffffffffffffffffffffffffffffffff1681565b600180546103029061099b565b80601f016020809104026020016040519081016040528092919081815260200182805461032e9061099b565b801561037b5780601f106103505761010080835404028352916020019161037b565b820191906000526020600020905b81548152906001019060200180831161035e57829003601f168201915b505050505081565b80600460003373ffffffffffffffffffffffffffffffffffffffff1673ffffffffffffffffffffffffffffffffffffffff168152602001908152602001600020541015610405576040517f08c379a00000000000000000000000000000000000000000000000000000000081526004016103fc90610a18565b60405180910390fd5b610429604051806060016040528060248152602001610b7b602491393384846105d2565b80600460003373ffffffffffffffffffffffffffffffffffffffff1673ffffffffffffffffffffffffffffffffffffffff16815260200190815260200160002060008282546104789190610a67565b9250508190555080600460008473ffffffffffffffffffffffffffffffffffffffff1673ffffffffffffffffffffffffffffffffffffffff16815260200190815260200160002060008282546104ce9190610a9b565b925050819055508173ffffffffffffffffffffffffffffffffffffffff163373ffffffffffffffffffffffffffffffffffffffff167fddf252ad1be2c89b69c2b068fc378daa952ba7f163c4a11628f55a4df523b3ef83604051610532919061082b565b60405180910390a35050565b6000600460008373ffffffffffffffffffffffffffffffffffffffff1673ffffffffffffffffffffffffffffffffffffffff168152602001908152602001600020549050919050565b60006105ca6040518060400160405280600e81526020017f546f74616c20737570706c793a20000000000000000000000000000000000000815250600254610674565b600254905090565b61066e848484846040516024016105ec9493929190610acf565b6040516020818303038152906040527f8ef3f399000000000000000000000000000000000000000000000000000000007bffffffffffffffffffffffffffffffffffffffffffffffffffffffff19166020820180517bffffffffffffffffffffffffffffffffffffffffffffffffffffffff8381831617835250505050610710565b50505050565b61070c828260405160240161068a929190610b1b565b6040516020818303038152906040527fb60e72cc000000000000000000000000000000000000000000000000000000007bffffffffffffffffffffffffffffffffffffffffffffffffffffffff19166020820180517bffffffffffffffffffffffffffffffffffffffffffffffffffffffff8381831617835250505050610710565b5050565b6107278161071f61072a61074b565b63ffffffff16565b50565b60006a636f6e736f6c652e6c6f679050600080835160208501845afa505050565b610756819050919050565b61075e610b4b565b565b600081519050919050565b600082825260208201905092915050565b60005b8381101561079a57808201518184015260208101905061077f565b60008484015250505050565b6000601f19601f8301169050919050565b60006107c282610760565b6107cc818561076b565b93506107dc81856020860161077c565b6107e5816107a6565b840191505092915050565b6000602082019050818103600083015261080a81846107b7565b905092915050565b6000819050919050565b61082581610812565b82525050565b6000602082019050610840600083018461081c565b92915050565b600080fd5b600073ffffffffffffffffffffffffffffffffffffffff82169050919050565b60006108768261084b565b9050919050565b6108868161086b565b811461089157600080fd5b50565b6000813590506108a38161087d565b92915050565b6000602082840312156108bf576108be610846565b5b60006108cd84828501610894565b91505092915050565b6108df8161086b565b82525050565b60006020820190506108fa60008301846108d6565b92915050565b61090981610812565b811461091457600080fd5b50565b60008135905061092681610900565b92915050565b6000806040838503121561094357610942610846565b5b600061095185828601610894565b925050602061096285828601610917565b9150509250929050565b7f4e487b7100000000000000000000000000000000000000000000000000000000600052602260045260246000fd5b600060028204905060018216806109b357607f821691505b6020821081036109c6576109c561096c565b5b50919050565b7f4e6f7420656e6f75676820746f6b656e73000000000000000000000000000000600082015250565b6000610a0260118361076b565b9150610a0d826109cc565b602082019050919050565b60006020820190508181036000830152610a31816109f5565b9050919050565b7f4e487b7100000000000000000000000000000000000000000000000000000000600052601160045260246000fd5b6000610a7282610812565b9150610a7d83610812565b9250828203905081811115610a9557610a94610a38565b5b92915050565b6000610aa682610812565b9150610ab183610812565b9250828201905080821115610ac957610ac8610a38565b5b92915050565b60006080820190508181036000830152610ae981876107b7565b9050610af860208301866108d6565b610b0560408301856108d6565b610b12606083018461081c565b95945050505050565b60006040820190508181036000830152610b3581856107b7565b9050610b44602083018461081c565b9392505050565b7f4e487b7100000000000000000000000000000000000000000000000000000000600052605160045260246000fdfe5472616e7366657272696e672066726f6d20257320746f20257320257320746f6b656e73a264697066735822122042548c17ecc2c754bb430f4907b1880cf89fdd4ad0a379064f47abecde61680d64736f6c634300081b0033",
  "linkReferences": {},
  "deployedLinkReferences": {}
}